:020000040800F2
:1000000098130020AD010008B5010008B7010008F1
:10001000B9010008BB010008BD0100080000000094
:10002000000000000000000000000000BF01000808
:10003000C101000800000000C3010008C50100085C
:10004000C7010008C7010008C7010008C701000870
:10005000C7010008C7010008C7010008C701000860
:10006000C7010008C7010008C7010008C701000850
:10007000C7010008C7010008C7010008C701000840
:10008000C7010008C7010008C7010008C701000830
:10009000C7010008C7010008C7010008C701000820
:1000A000C7010008C7010008C7010008C701000810
:1000B000C7010008C7010008C7010008C701000800
:1000C000C7010008C7010008C7010008C7010008F0
:1000D000C70100088D25000811260008C701000887
:1000E000C7010008C7010008C701000800F002F8B6
:1000F00000F04DF80AA090E8000C82448344AAF175
:100100000107DA4501D100F042F8AFF2090EBAE872
:100110000F0013F0010F18BFFB1A43F0010318473B
:1001200080320000A0320000103A24BF78C878C1A5
:10013000FAD8520724BF30C830C144BF04680C60ED
:10014000704700000023002400250026103A28BF35
:1001500078C1FBD8520728BF30C148BF0B60704739
:10016000662903F05280002070471FB500F0D4FBD1
:1001700004000020002102F0F7FB401C606000201A
:10018000002102F0DBFBE0601FBD10B510BD00F0E8
:1001900051FD1146FFF7E9FF02F0B2FB00F0D0FF7E
:1001A00003B4FFF7F2FF03BC01F03AFA09488047B5
:1001B00009480047FEE7FEE7FEE7FEE7FEE7FEE749
:1001C000FEE7FEE7FEE7FEE704480549054A064B61
:1001D000704700002D250008ED000008980D002054
:1001E00098130020980F0020980F00200FB41CB522
:1001F000074B06AA7B4469460090059800F0BDFABB
:100200000020694600F0CCFA1CBC5DF814FB00002D
:10021000A90500002DE9F0410E46044600202062A9
:100220002046E168884730B3252805D0D4E901216C
:100230009047206A401CF2E7E16820460027884783
:10024000050018D0A5F14100192802D820354FF437
:1002500000673246294620462760FFF781FF40B1FC
:10026000012804D0F61D26F007060836D8E7361D0B
:10027000D6E72846DAE7206ABDE8F08170B5064681
:1002800000F05AF80468054630460A22002100F0C2
:10029000DDFA2C6070BD0000014A00F00FBB0000C9
:1002A0000800002010B5431C02E010F8011B71B1DA
:1002B0008107FAD14FF0013202C88C1A8C4314EA3C
:1002C000C211F9D0C01A0A0603D0C01E10BDC01A50
:1002D00010BD0A0401D0801E10BD0902FCD0401ED2
:1002E00010BD4FF0000200B51346944696462039E3
:1002F00022BFA0E80C50A0E80C50B1F12001BFF4DF
:10030000F7AF090728BFA0E80C5048BF0CC05DF844
:1003100004EB890028BF40F8042B08BF704748BF92
:1003200020F8022B11F0804F18BF00F8012B704706
:10033000704770477047000000487047340D002038
:1003400010B5FFF7F9FF006810BD10B50446FFF7C0
:10035000F3FF046010BD70472DE9FF4F0C461E46A9
:100360004FF0FF378BB0D2E90001DDF860800A90D2
:100370008A46C1F30A5505B93D46002108464FF0AB
:100380000000BAF1000F00F4400005DA00EB800035
:100390004FF4400101EA50004FEA9059B9F1010FC2
:1003A00000DDB9460A9850EA4A000ED044F61050D3
:1003B000A5F2FF3545432F14B8F1000F1ED075424A
:1003C000291E1EDDC9F100021CE0B8F1010F4FF03B
:1003D000000001D0302103E0F24305E02154401C2D
:1003E000B042FBDB30460022002121540B99C1F8BA
:1003F0000880C1E900200FB0BDE8F08FBD1B6D1C67
:10040000DEE74A4600DA694206A800F087FB06AB41
:1004100093E8070003AB83E8070050460A9901F010
:1004200019F98DE80700A0F500501F3800900398D7
:10043000002D09DD42F21F014A46084403A903903A
:10044000684601F0A2FB08E0A0F500504A461F38BC
:1004500003A90390684601F0C0FB8DE80700000483
:10046000000C03D04FF0FF30410800E01046B8F117
:10047000000F03D00022009215461EE0751E05D421
:1004800000F04EFA303262556D1EF9D5B3460122A6
:10049000084302D000227F1C04E02078302801D1DC
:1004A00000227F1E002A099786D01DE0112D07DA51
:1004B00000F036FA303262556D1C50EA0102F5D177
:1004C000084302D00098C8B10EE00021681E05E084
:1004D000235C625C63542254401E491C8142F7DB5A
:1004E000AB46A81B401E0990002004F80B000B9897
:1004F000099AC0F80880C0E9002B7CE711264FF06C
:10050000000859E72DE9F04F88460446D21D22F035
:10051000070191B0D1E90001CDE90A0102F0C2F86A
:1005200002460B98C00F01D02D2007E020688107FC
:1005300001D52B2002E0202101EAC000032A099006
:1005400001D0072A05DB03464146204600F036FA73
:100550000BE12078800601D5E06900E00620B8F1C3
:10056000650F814606D0B8F1660F18D0B8F1670F55
:1005700070D131E00020B9F1110F009001DB11239F
:1005800001E009F101030AAA01A90CA8FFF7E4FEA2
:10059000DDE90C70002609F10105834647E00120E2
:1005A0004B4600904FF000470AAA01A90CA8FFF79C
:1005B000D3FEDDE90DB00C995D46002610B909F1B6
:1005C00001000D18B9EB050003D4C0F1FF3609F1A5
:1005D0000105A5EB09002BE0B9F1010F01DA4FF09D
:1005E00001090020B9F1110F0090484601DD1123E7
:1005F00000E003460AAA01A90CA8FFF7ADFEDDE959
:100600000C704D4600268346207800070AD4AB457F
:1006100000DA5D4601A8012D04DD411911F8011C25
:10062000302907D04F4502DA17F1040F04DA012010
:1006300082460FE06D1EEEE7002F02DCED1B3E440C
:1006400003E0781CA84200DD7D1CB81B00F1010A04
:100650004FF000472078000703D4AA4501DB4FF094
:10066000FF3A0021B7F1004F0DF143088DF8431018
:1006700024D002202B23002F01DA7F422D230A21D0
:10068000021EA0F1010000DC5FB197FBF1FC97FBBB
:10069000F1F201FB1C7C17460CF1300C08F801CD7F
:1006A000EEE7A8F1010003702188090501D5452175
:1006B00000E06521A0F1010800F8011C09980FA9CC
:1006C000A1EB0807FF1D00B10120411901EBEA7001
:1006D000A1693844081A401EA0612078C00602D4DF
:1006E0002046AFF30080099828B1D4E90121904752
:1006F000206A401C20622078C00622D52046AFF335
:1007000000801EE0002E04DBB34502DD01A8805D01
:1007100000E03020D4E901219047206A401C20628B
:10072000761CAAF101005FEA000A0AD100F0F4F891
:10073000C0680168405CD4E901219047206A401CF0
:100740002062281EA5F10105DCDC07E0D4E90121C7
:1007500018F8010B9047206A401C2062381EA7F150
:100760000107F3DC2046AFF30080032011B043E61D
:1007700001694A1C02610878704700B58FB0CDE965
:1007800001310021059105497944CDE90310114655
:100790006846FFF73FFD0FB000BD0000E5FFFFFF1B
:1007A0000A6802F8010B0A60704700000FB40023CA
:1007B00000B589B00CA900910B99CB60204B7B440C
:1007C0000693204B7B44079304236FF00042CDE94E
:1007D00001321D4A7A446B4608920246002002F01C
:1007E00076FD09B05DF814FB70B506464FF0FF309A
:1007F00015460C46324686B00091CDE901016946A6
:100800000020049004A8FFF7D1FF034604982118A4
:1008100025B108B10A4600E022462A6000280DD022
:10082000002B02DD0098884208D03246081B69463A
:100830000094CDE9010404A8FFF7B8FF06B070BD2D
:100840007B02000093020000D30100002DE9F04775
:1008500091460F4680460446002614F8015B2DB1F0
:1008600000F052F80068405DC007F6D12B2D02D091
:100870002D2D18D0641E4A463946204600F0FEF859
:1008800027B13968A14201D1C7F800804FF00204B6
:1008900071050BD54042002803DDFFF74DFD0460D4
:1008A000A007BDE8F08746F48066E4E70028F8DAA0
:1008B000FFF742FD04606FF00040F2E72DE9F041E0
:1008C00015460E46040002D12C6804B90BA420463C
:1008D00000F0A2F90444207870B12746314638462A
:1008E00000F08AF90444207810B1002004F8010BCC
:1008F00038462C60BDE8F0810027F9E700000000D1
:1009000000487047340D002010B500F005F8001DB8
:1009100010BD00BF5520000000487047540D002056
:1009200030B5B0F10A024FEA900E71F100034EEAC1
:10093000817EB0EB0E0061EB91014FEA101E4EEA92
:10094000017E10EB0E0041EB11114FEA102E4EEA22
:10095000016E10EB0E0041EB11214FEA104E4EEAF2
:10096000014E10EB0E0041EB1141401841F1000126
:100970004FEAD00040EA41704FEAD10110EB800508
:100980004FEA810444EA907444EB01046D1944EB8E
:100990000404521BA3414FF0000348BF0A3200D5A4
:1009A00030BD401C41F1000130BD10B50446FFF7D9
:1009B000ABFF0068005D00F0010010BD2DE9F041C3
:1009C0001F46044603260168072A01F4006004DB81
:1009D00008B116A505E016A503E008B115A500E0CD
:1009E00015A521F010002060A069C01EA0610FB104
:1009F000401EA0612046AFF300804FB1D4E9012131
:100A000038469047206A401C2062C01C206206E0E5
:100A1000206AFAE7D4E9012115F8010B9047761E08
:100A2000F8D22046AFF30080BDE8F0814E414E0081
:100A30006E616E00494E4600696E6600426842B1C2
:100A4000016811F8013B23B1521EC0E9001218469B
:100A500070470121C160881E704742685AB1C3685F
:100A6000016843B983688B4205D0491E521CC0E916
:100A70000012002070474FF0FF3070472DE9F05F03
:100A8000824615468B4600270AF10104B9460078D4
:100A9000302801D09DB113E014F8010B012778280C
:100AA00003D0582801D045B10AE00DB1102D07D16F
:100AB000002714F8010B102502E0082500E00A25A4
:100AC0000026B0460EE005FB080005FB06F10127F5
:100AD0001FFA80F801EB1046B6F5803F00D3B94607
:100AE00014F8010B294600F0CAF80028EBDABBF134
:100AF000000F05D00FB1641E00E05446CBF8004053
:100B0000B9F1000F06D0FFF717FC02210160C81EE3
:100B1000BDE8F09F48EA0640FAE700002DE9F047FB
:100B2000814616468AB0334878440DC88DE80D00DA
:100B300030487844801C03AC0DC884E80D0041F6B1
:100B40009B300844372190FBF1F290FBF1F5A5F1C1
:100B5000800501FB12041B3C02D56442012000E029
:100B60000020DFF890A080460027FA44AAF1BE0AD0
:100B70000DE0E00709D03246684607EB47010AEB73
:100B8000810101F02AF88DE8070064107F1C002C19
:100B9000EFD1184F7F44AC3F18E0E80714D007EBC3
:100BA00004100DF1180A90E80E008AE80E00C068E3
:100BB000F04201D198190890324606A903A801F025
:100BC0000CF803AB83E807006D10641C002DE4D122
:100BD00032466946B8F1000F03A802D000F0D5FFF5
:100BE00001E000F0FAFFC9E90001C9F808200AB0E5
:100BF000BDE8F0875C28000030B503461D781DB1C4
:100C00000A4603E0AC4201D1181A30BD12F8014B7C
:100C1000002CF7D15B1CF1E730B503461D783DB1E0
:100C20000A4612F8014B1CB1AC42FAD15B1CF5E745
:100C3000181A30BD7546FFF763FEAE4605006946DB
:100C4000534620F00700854618B020B5FFF7BCFAE0
:100C5000BDE820404FF000064FF000074FF00008BD
:100C60004FF0000B21F00701AC46ACE8C009ACE83E
:100C7000C009ACE8C009ACE8C0098D4670473A2805
:100C800000D2303820F02002412A01D3A2F13700EF
:100C9000884201D34FF0FF30704700002DE9FF4F2D
:100CA000064689B00878FF2806D0491C2D2805D0B3
:100CB00000244FF0000908E000200CE00124F8E7D0
:100CC00009EB8903491C00EB43090878FF28F7D199
:100CD00014B1C9F100008146107800252C46AA46BF
:100CE00029462D2801D02B2804D1521C2D2813D0A1
:100CF000002082468B461078FF280FD04FF0000C62
:100D00000A21521CA5FB017804FB018105FB0C1193
:100D1000C5194BEB0104EEE70120EAE70021084684
:100D20004FF00000BAF1000F02D000EB8000400845
:100D3000C0F38158B8F1010F01DD4FF0FF380C9876
:100D400009EB000755EA040009D04FF0020917F536
:100D5000FA7F0BDA4FEACA70C6E900B012E04FEA38
:100D6000CA70C6E900B00DB0BDE8F08FB7F5FA7FE4
:100D70000DDDF0487844D0E90010C6E9001040EAE3
:100D8000CA707060FFF7D8FAC0F80090EBE7391E20
:100D900002DAC8F1000200E0424600DA794206A811
:100DA000FFF7BCFE06AB93E8070003AB83E8070040
:100DB00044F23E005BEA04010090584604D144F23C
:100DC0001E012C465D460091210C0904014306D109
:100DD0000099240444EA15442D041039009104F0CC
:100DE0007F41014306D10099240244EA15642D0293
:100DF0000839009104F07041014306D100992401A3
:100E000044EA15742D01091F009104F0404101438B
:100E100006D10099A40044EA9574AD00891E0091A2
:100E200004F00041084304D100986D196441401E4C
:100E3000009042466846002FCDE9014503A902DD36
:100E400000F0DFFE01E000F0B4FEBAF1000F04464E
:100E50000D4601D084F0004440F2FF7724F00040BA
:100E6000284303D0C4F30A50B84212D1FFF764FA02
:100E7000C0F80090C4F30A50B8420AD1AE48784492
:100E8000D0E90010C6E9001004F00041084370608A
:100E900069E7C6E9005466E72DE9FF4F1F464FF0AA
:100EA000000A4FF0FF38454691B0D7E90146CDF82A
:100EB0003CA0FFF731FDC0680168405C1090B96943
:100EC00012986D1C8847396A814688470028F6D1F8
:100ED000B9F1FF3F0AD0002E24F4D06411DDB9F13E
:100EE0002B0F08D0B9F12D0F0BD102E0404615B001
:100EF0003AE744F48064B96912986D1C8847761EFD
:100F00008146600504A901D52D2000E02B20002E8C
:100F100001F1010B0DF130088DF810003FDDB9F142
:100F2000690F08D0B9F1490F05D0B9F16E0F02D0A1
:100F3000B9F14E0F1CD13B4601A8009580E8500244
:100F4000DDE912126FF0020002F0C5F9C11CCED12A
:100F50000EE0B96912986D1C884781461398761E79
:100F600044F4007405600F98401C002E0F9016DDAD
:100F7000B9F1300FEDD0B9F1780F02D0B9F1580FB7
:100F80000DD10F9801280AD13B46CDE90054DDE987
:100F90001212001F029602F09CF9C11CA7D11099F1
:100FA00089453ED144F0800406E01399681CAAF1FB
:100FB000010A44F400740860B9696D1C1298761E29
:100FC000884730288146F0D02BE01099894505D11B
:100FD000200603D4761E44F0800418E0484601F051
:100FE000DCFB08B3761E0DF123018B4544F400743D
:100FF00008D2A9F130000BF8010B200607D5AAF1A1
:10100000010003E0200602D40AF101008246A00597
:1010100002D51399681C0860B96912986D1C88473D
:101020008146002ED1DC53E0002E51DDB9F1650F71
:1010300002D0B9F1450F4BD1A00549D5B9696D1C56
:101040001298761E24F440748847002E81460CDDE9
:101050002B2804D0B9F12D0F07D144F48074B9695D
:1010600012986D1C8847761E8146E00501D52D211A
:1010700000E02B2108F8011BCDF8008021E0761E4E
:101080000DF13901884544F400740CD2A9F1300007
:1010900010F0FF0088F8000002D10099884509D9B6
:1010A00008F1010806E0E00501D5244801E042F21C
:1010B0000F708246B96912986D1C88478146139853
:1010C0000560002E04DD484601F067FB0028D6D1FC
:1010D000F96912988847FF2053468BF8000088F87A
:1010E000000000200A900B9004AA0CA90AA8FFF7A0
:1010F000D5FDA00502D46FF00100F8E614F0240F2E
:101100000AD0E00714D13868DDE90A12031D3B60FC
:101110000068C0E900120BE00AA9684601F0E6FA8F
:10112000E00705D13868009A011D39600068026047
:101130002846DCE6482600003E250000F1D8FFFFE7
:1011400010B50446AFF300802046BDE81040FFF71D
:1011500027B800004FF0013C50F8042B51F8043B35
:101160009A4221D1A2EB0C03934313EACC1317D17B
:1011700050F8042B51F8043B9A4215D1A2EB0C0312
:10118000934313EACC130BD150F8042B51F8043BD2
:101190009A4209D1A2EB0C03934313EACC13DBD0A0
:1011A0004FF00000704700BFD01A01BAB1FA81F1C8
:1011B00001F0180122FA01F0CB40C1F12001DBB2AD
:1011C000C0B2C01A2CFA01F3D11A914311EAC3112B
:1011D000E6D170472DE9FF4F1F464FF03C0987B01D
:1011E0004FF00042DDE9141001F10108DDF858A0CC
:1011F00002EA4050039000200490834605460446CE
:101200000590B969461E08988847AAF1010A02901C
:10121000BAF1000F37DD02982E2815D01021FFF704
:101220002EFD00282ADB4FF0010B0499014316D054
:10123000B9F1000F0BDB4A46C11700F0F7F905437F
:101240000C43A9F1040905E00120059007E008B16D
:1012500045F0010501200490059800B9361DB969D3
:10126000089808F101088847BBF1000FAAF1010AAC
:101270000290CDD00999C1F80080C9E70298702882
:1012800008D0502806D0F96908988847BBF1000FAC
:1012900014D04FE0002002900120BBF1000F049019
:1012A00009D0B969089808F101088847AAF101092D
:1012B000B9F1000F07DCF969089888476FF0010061
:1012C0000BB0BDE8F08F2B2804D02D280CD14FF0A7
:1012D000FF300490B969089808F101088847A9F11E
:1012E0000109B9F1000FE6DD411CE4D00A21FFF746
:1012F000C6FC0028DFDB029908F1010801EB81013F
:1013000000EB41000290B969089888470A21FFF76D
:10131000B6FC099AA9F10109B9F1000FC2F80080E1
:1013200001DD0028E7DAF9690898884704990298EE
:1013300000FB016655EA040004D004F040410900B6
:1013400002D006E0039898E0A40044EA9574AD004A
:10135000B61E04F00041080002D16D196441761EEA
:10136000159810F0240F03D04FF00B095C4803E0F0
:101370004FF028096FF07D008246564507DAAAEB48
:1013800006018944B9F1410F01DD4FF04109012007
:101390000021A9F1010200F049F9024628400B465C
:1013A0002140084301D0012100E00021501E02919C
:1013B00043F1FF3128402140084301D0012000E0E3
:1013C00000200299834651EA0B014FD000210846C4
:1013D0004FF00000039900F4400039B100EB8000A9
:1013E0004FF4400100EBD07001EA60008015012845
:1013F00002DD4FF0FF3000E013D0401C36D00298E1
:1014000060B3BBF1000F0CD14A460120002100F06F
:101410000DF928402140084301D0012000E00020C0
:10142000E0B101204A46002100F000F903464019CE
:101430000A4661412D1A8C4111D3B9F1400F09DDE3
:10144000159810F0240F02D0AAF1340603E0AAF197
:10145000170600E0761C00254FF0004406E05B1EF6
:1014600042F1FF3220EA030521EA0204CAF1010039
:10147000B04206DA1B49039808430190002000900F
:101480000EE0039AC4F3D321E80A0A43164940EA5E
:1014900044500A433146CDE90002684601F072F932
:1014A000159810F0240F0BD01598C00715D1386887
:1014B000DDE90012031D3B600068C0E900120CE08A
:1014C00002A8694601F012F91598C00705D13868DD
:1014D000029A011D3960006802604046F0E6000093
:1014E00002FCFFFF0000F07F0000F03F2DE9FF4FFE
:1014F00092461D4685B04FF00041DDE9124BDDE913
:1015000014727F1E01EA4B50414940F0FF4940EA06
:101510000108002122F020004928049102D04E2821
:1015200028D04CE03BA0012607C88DE80700A96938
:101530000698641C88477F1E014606D41DF80600E5
:1015400018B121F0200181420BD0E9690698884743
:10155000032E34D0082E32D06FF0010009B0BDE860
:10156000F08F761C032E01D0082EE0D1601CCAF843
:101570000000DCE7A9690698641C88477F1E2AD40E
:1015800020F02000412826D1A9690698641C8847CC
:101590007F1E20D420F020004E281CD1A969069877
:1015A000641C88477F1E48F4002849F48009CAF863
:1015B000004001D4282806D0E969069888475FEAE8
:1015C000CB7012D022E0A9690698641C88477F1E60
:1015D00001D4002803DAE96906988847BCE729287E
:1015E000F1D1641CCAF80040E9E71BF0240F07D0D2
:1015F00028680499031D2B600068C0E9001805E005
:101600002868021D2A600068C0F800902046A5E7FF
:101610000000F07F494E46494E49545900000000F1
:1016200001491820ABBEFEE726000200B2F12003FC
:101630000AD5C2F1200301FA02F120FA03F300FAFD
:1016400002F041EA0301704700FA03F14FF0000095
:10165000704770475FEA400C08BF91F0000F4FEAF7
:101660008C234FEAC12243EA51514FEA1C5018BF64
:1016700000F5F0404FEA300018BF41F000415FEA4A
:101680006C5C00F02980BCF1FF3F08BF40F0804057
:101690007047130C06BF12044FF0100C4FF0000CF3
:1016A000130E04BF12020CF1080C130F04BF120139
:1016B0000CF1040C930F04BF92000CF1020CD30F39
:1016C00004BF52000CF1010C11464FF00002A0F1D2
:1016D0001F00A0EB0C00704711F0004F08BF7047CF
:1016E00031F000413FF4D5AF0B0C06BF09044FF0B9
:1016F000100C4FF0000C0B0E04BF09020CF1080C8B
:101700000B0F04BF09010CF1040C8B0F04BF8900FF
:101710000CF1020CCB0F04BF49000CF1010CCCF111
:101720002003A0EB0C0022FA03F302FA0CF241EAC8
:10173000030100F10100704720F07F4C80EA0300B4
:1017400023F07F47ACEB070303F57C5300F0004028
:1017500003F1FF032DE980494FEA154B09B44FEA25
:10176000144325EA0B4E24EA03480FF2042606EB45
:10177000132749083E785FEA320203FB0667C7F584
:10178000000707FB06F64FEA54374FEAD64606F144
:10179000020607FB066CCCF1005C4FEA1C472CEA02
:1017A000074C07FB06F40CFB06F504EB15464FEA65
:1017B000961634BF00204FF000404FEAD13706FBA9
:1017C00007FC4FEA1C4C0CFB0BF7D21B03FB0CF77E
:1017D00061EB07010CFB0EF7B0EB074072EB174211
:1017E0000CFB08F734BFA2EB0742B2EB074261EBF8
:1017F00017414FEA0C444FEA910706FB07FC4FEAFA
:101800001C4C0CFB0BF7B0EBC74072EB573203FBE1
:101810000CF734BFA2EBC742B2EBC74261EB5731C2
:101820000CFB0EF7B0EBC70072EB57720CFB08F71E
:1018300034BFA2EBC702B2EBC70261EB5771039F43
:101840004FEA816141EA921104EBCC044FEAD137AF
:101850004FEA826206FB07FC42EA90124FEA806080
:101860004FEA1C4C0CFB0BF7D21B03FB0CF761EB94
:1018700007010CFB0EF7B0EB074072EB17420CFBB5
:1018800008F734BFA2EB0742B2EB074261EB174106
:101890004FEA8C554FEA910704EB9C2406FB07FCAA
:1018A0004FEA1C4C0CFB0BF7B0EBC74072EB573206
:1018B00003FB0CF734BFA2EBC742B2EBC74261EBAC
:1018C00057310CFB0EF7B0EBC70072EB57720CFBF5
:1018D00008F734BFA2EBC702B2EBC70261EB577146
:1018E00015EB4C254FEA816141EA92114FEA826281
:1018F0004FEAD13742EA901206FB07FC44F100049C
:101900004FEA80604FEA1C4C0CFB0BF7D21B03FB29
:101910000CF761EB07010CFB0EF7B0EB074072EB25
:1019200017420CFB08F734BFA2EB0742B2EB0742A9
:1019300061EB174115EB1C154FEA813141EA9241E9
:101940004FEA823242EA90424FEA80304FEA0C7608
:1019500044F1000448EA03434EEA0B484FF0000EFE
:10196000B2EB080C71EB030724BF624639464EEB1D
:101970000E0E4FF0000B0018524149414BEB0B0B80
:10198000B2EB080C71EB03077BF1000B24BF62463E
:1019900039464EEB0E0E4FF0000B001852414941F4
:1019A0004BEB0B0BB2EB080C71EB03077BF1000B5D
:1019B00024BF624639464EEB0E0E51EA020718BFAD
:1019C00046F0010616EB0E7655F1000254F10001C7
:1019D00003D5BDE88901BDE80088BDE88901BDE8FF
:1019E0000048B619524141EB0101A3F101037047D0
:1019F00080807F7E7D7C7B7A79787776767574734C
:101A0000727171706F6E6E6D6C6C6B6A6A6968680A
:101A1000676666656464636362616160605F5F5EA0
:101A20005E5D5D5C5C5B5B5A5A5959585857575616
:101A3000565555555454535352525251515050507B
:101A40004F4F4F4E4E4D4D4D4C4C4C4B4B4B4A4ACD
:101A50004A49494948484847474747464646454511
:101A6000454444444443434343424242424141414A
:101A700046EA0646A3F570534FEA164646EA425632
:101A80004FEAD22242EA415210B54FEAD121A3F1E6
:101A9000010300F017F820F0004000F1010C00F005
:101AA000004701EB00501146BCF5006F40EA07000B
:101AB00000D210BD02484FF0000140EA070010BDFF
:101AC0000000F07F002B26D4770021D01CB54FEA10
:101AD000370703B44FF010004FF010014FF0000033
:101AE0000FBCBDE810400BF1010BBBF1010F08BFAB
:101AF0005FEA170722BF12F1010211F101014FF055
:101B0000004143F1000300F0004043EA0000704749
:101B1000F9D35708DAE746EA064613F1400F4FEAD1
:101B200016461FDD13F1200FDFBF16430A460021C2
:101B300020335B42C8D0C3F1200746EA064602FACA
:101B400007F74FEA164646EA0706C3F1200722FACE
:101B500003F201FA07F721FA03F14FF0000342EA1A
:101B60000702B1E746EA020646EA06464FEA16468B
:101B700046EA0106BCBF46EA0646360C4FF00003B3
:101B80004FF000024FF000019EE72DE9C048934658
:101B900030B491E8380007C831EA400C48BF34EA55
:101BA000430C03D5FFF7C8FDFFF78CFFF0BCBDE881
:101BB00000882DE9C048934630B491E8380007C842
:101BC00031EA400C48BF34EA430C03D5FFF7B4FDBB
:101BD000FFF74EFFF0BCBDE800882DE9C0489346F2
:101BE00030B491E8380007C810F0804F08BF13F0F8
:101BF000804F03D100F019F8FFF764FFF0BCBDE897
:101C000000882DE9C048934630B491E8380007C8F1
:101C100010F0804F08BF13F0804F03D100F005F89B
:101C2000FFF726FFF0BCBDE8008820F07F4780EA80
:101C3000030023F07F4C07EB0C03A3F57C5300F06B
:101C40000040A3F1FE0392F0000F00F0B38095F086
:101C5000000F00F077802DE901494FEA11404FEA6B
:101C6000144621EA004800FB06FC24EA064708FB6C
:101C700006F607FB08F800FB07F718EB06484CEBE5
:101C8000164C4FEA124B18EB07484FEA15464CEB3F
:101C9000174022EA0B4E0BFB06FC25EA06470EFB1B
:101CA00006F607FB0EFE0BFB07F71EEB064E4CEB92
:101CB000164C4FF000061EEB074E4CEB174B18EB83
:101CC0000B0840F1000018EB0E0B58EB000840F138
:101CD00000008F1A4FF000013CBFC943661B14BFC0
:101CE000B5EB040C00213CBFC943F61B4FEA174477
:101CF0004EEA8E0E27EA04454FEA1C4704FB0762B2
:101D00002CEA074C05FB07F70CFB05F604FB0CFC63
:101D100016EB074642EB174216EB0C4642EB1C4211
:101D20001BEB060658EB0202414146EA9E0601D52E
:101D3000BDE80189B619524141EB0101A3F101034C
:101D4000BDE801894FEA14454FEA114724EA0546E8
:101D500021EA074C05FB07F406FB07F70CFB06F12D
:101D600005FB0CFC11EB074144EB17444FEA12470B
:101D700011EB0C4144EB1C4422EA074C05FB07F233
:101D800006FB07F70CFB06F605FB0CFC16EB0746FB
:101D900042EB174216EB0C4642EB1C456A1854F115
:101DA000000148BF7047B619524141EB0101A3F150
:101DB0000103704795F0000F37D04FEA11424FEA08
:101DC000144721EA024624EA074C02FB07F106FB0E
:101DD00007F70CFB06F402FB0CFC14EB074441EB89
:101DE00017414FEA154714EB0C4441EB1C4125EA1F
:101DF000074C02FB07F506FB07F70CFB06F602FB98
:101E00000CFC16EB074645EB174516EB0C4645EB6D
:101E10001C42121951F1000148BF7047B6195241D6
:101E200041EB0101A3F1010370474FEA14454FEA6A
:101E3000114724EA054621EA074C05FB07F106FB9A
:101E400007F70CFB06F24FF0000605FB0CFC12EB4B
:101E5000074241EB174112EB0C4251EB1C4148BFCA
:101E60007047921841EB0101A3F10103704710B5CF
:101E7000044603E014F8010B00F01AF8207800285B
:101E8000F8D110BD10B5094AD2F8E823521C4FF41E
:101E90007A7392FBF3F403FB1421044AD2F8E8238B
:101EA000024B98541A46C2F8E81310BD0C000020EB
:101EB00010B50F4AD2F8E823521C4FF47A7392FB04
:101EC000F3F403FB14210A4AD2F8EC238A420DD022
:101ED000074AD2F8E823064B98541A46C2F8E8138A
:101EE000044A128842F08002024B1A8010BD0000A2
:101EF000FC0300200C3801401348806944F20401BF
:101F00000843114988611148006840F0B0000F494A
:101F1000086040F271200E490880081D008842F2D6
:101F2000AC0108430A49091D08802520002809DB67
:101F300000F01F02012191404209920002F1E022CB
:101F4000C2F8001100BF70470010024004080140B1
:101F50000838014007484FF0E021486100208861BF
:101F600000BF4FF0E020006900F480300028F8D076
:101F7000704700004019010000B5024602E0FFF77B
:101F8000E9FF521E002AFAD100BD00002DE9F04100
:101F9000044622A12046FEF77FF907461FA1002034
:101FA000FEF77AF907461DA10020FEF775F90746EE
:101FB0001AA10020FEF770F9074618A10020FEF7CD
:101FC0006BF9074615A10020FEF766F9074613A135
:101FD0000020FEF761F9074610A10020FEF75CF92A
:101FE0000746384600F0E0FB054600F055FD0C4979
:101FF00008700AA10020FEF74FF9074607A100204C
:10200000FEF74AF90746384600F0CEFB054600F0D9
:10201000C1FC03494860BDE8F08100002C000000CD
:10202000000000202DE9F04105463BA12846FEF7BF
:1020300033F9044638A10020FEF72EF90446204665
:1020400000F0B2FB064600F0A5FC3449486032A11E
:102050000020FEF721F904462078304908702EA1AF
:102060000020FEF719F90446204600F09DFB0646C5
:1020700000F090FC804600F0D9FB2849C86026A1FA
:102080000020FEF709F9044620782449087222A1AD
:102090000020FEF701F90446204600F085FB0646C5
:1020A00000F078FC804600F0C1FB1C4908611AA1D1
:1020B0000020FEF7F1F8044620781849487216A16E
:1020C0000020FEF7E9F80446204600F06DFB0646C6
:1020D00000F060FC114948610FA10020FEF7DCF818
:1020E00004460DA10020FEF7D7F804462046FEF76F
:1020F000C5F80A49886108A10020FEF7CDF804461A
:1021000005A10020FEF7C8F8044603A10020FEF751
:10211000C3F80446BDE8F0812C000000880B0020C5
:102120002DE9FF47012124A000F05CF868B12449A3
:1021300021A000F09BF820B12148FFF773FF00F0C9
:1021400043F94FF47A70FFF717FF01211DA000F04B
:1021500049F848B11A491BA000F088F820B1184886
:10216000FFF714FF00F030F91848007841281ED11D
:102170001749486800F084FD04460D461349C868B5
:1021800000F07EFD06460F461049086900F078FD14
:10219000804642460B460FA11148CDE90067CDE9C4
:1021A0000245FEF723F80E48FFF761FE01E000F05C
:1021B0000BF9BDE8FF870000244750524D43000053
:1021C000080C00202447504747410000880B00209E
:1021D0000000002025662C25662C256620000000C6
:1021E000A40B00202DE9F04104460E463046FFF7CF
:1021F000C3FE00201C49C1F834012046FEF752F806
:1022000080460025002727E0605D1749D1F834118A
:10221000154A515C884209D01046D0F83401401C60
:102220001146C1F834010027002515E0605D0E4914
:10223000D1F834110C4A515C88420DD16D1C7F1CC1
:102240001046D0F83401401C1146C1F8340147450E
:1022500002D10120BDE8F0810348D0F83401B0F587
:10226000967FD1DB0020F5E7EC0700202DE9F05F39
:1022700005460F462846FEF715F800F0FF08002037
:102280004249C1F834010024814600268246834633
:102290002AE0285D3D49D1F834113C4A515C88421E
:1022A00009D00024A1461046D0F83401401C114644
:1022B000C1F8340118E0285D3449D1F83411334AAB
:1022C000515C884210D109F1010000F0FF09601C47
:1022D00084B21046D0F83401401C1146C1F83401D4
:1022E000C14501D1012605E02848D0F83401B0F5F8
:1022F000967FCEDB00BF3EB12448B0F83401A0EB9E
:1023000008001FFA80FA01E000F05EF8BEB1002676
:102310000EE01E48D0F83411D0F83401401C1B4A9E
:10232000C2F834011046405C2A2801D1012605E09C
:102330001648D0F83401B0F5967FEADB00BF0EB343
:102340001248B0F83401401C1FFA80FB0F48C0F857
:1023500034A100240EE00D48D0F83411D0F8340137
:10236000401C0A4AC2F834011046425C2046611CF7
:102370008CB23A540548D0F834015845EBDB0120C3
:10238000BDE8F09F00F020F80020F9E7EC070020FE
:1023900010B50C4AD2F82C21521C4FF4967392FBC4
:1023A000F3F403FB1421074AD2F830218A4207D004
:1023B000044AD2F82C21034B98541A46C2F82C1127
:1023C00010BD0000EC07002010B54FF496710548D1
:1023D000FDF787FF00200349C1F82C01C1F8300147
:1023E00010BD0000EC0700201348C06940F4003025
:1023F0001149C8611148006840F420600F49086025
:102400004FF49C700E490880081D008842F22C0190
:1024100008430B49091D08802620002809DB00F02D
:102420001F02012191404209920002F1E022C2F80C
:10243000001100BF7047000000100240000801407A
:102440000844004010B500F001F810BD0CB50020A4
:10245000019000903348006840F4803031490860B2
:1024600000BF3048006800F4003000900198401C24
:102470000190009818B90198B0F5A06FF1D12948E2
:10248000006800F4003010B10120009001E000204D
:1024900000900098012843D12348006840F01000C4
:1024A000214908600846006820F0030008600846DB
:1024B000006840F0020008601A4840681949486006
:1024C0000846406848600846406840F480604860BC
:1024D0000846406820F47C1048600846406840F494
:1024E000E81048600846006840F08070086000BF4F
:1024F0000C48006800F000700028F9D009484068D6
:1025000020F00300074948600846406840F0020098
:10251000486000BF0348406800F00C000828F9D16B
:102520000CBD0000001002400020024010B513480E
:10253000006840F0010011490860084640681049F1
:1025400008400E494860084600680E4908400B499B
:1025500008600846006820F480200860084640684B
:1025600020F4FE0048604FF41F008860FFF76AFF08
:102570004FF000600449086010BD000000100240E8
:102580000000FFF8FFFFF6FE08ED00E018B51E485A
:10259000008800F0200038B11B48001D0088C4B23C
:1025A0002046FFF76FFC2DE01748008800F0800000
:1025B00040B31648D0F8E8031449D1F8EC13884228
:1025C00008D111480C30008820F080000E490C31F1
:1025D000088017E00D48D0F8EC03401C4FF47A71E6
:1025E00090FBF1F201FB120000900848D0F8EC03D8
:1025F0000649085C0449091D088004490098C1F88F
:10260000EC0300BF18BD000000380140FC030020AF
:1026100018B52148008800F0200068B11F48D0F8A4
:102620002C01B0F5E17F35DA1B48001D0088C4B2EB
:102630002046FFF7ADFE2DE01748008800F080002F
:1026400040B31748D0F82C011549D1F83011884211
:1026500008D111480C30008820F080000E490C3160
:10266000088017E00E48D0F83001401C4FF49671F6
:1026700090FBF1F201FB120000900948D0F8300104
:102680000749085C0449091D088005490098C1F8FC
:10269000300100BF18BD000000440040EC070020DE
:1026A00024090020490050EAC12018BF04204A0D27
:1026B00018BF40F0010040F2FF72B2EB515F08BF5B
:1026C00040F00200012808BF0520704740F20132A7
:1026D00000204FF0E04100F0CCBD0000024A002095
:1026E000110700F0C6BD000001FDFFFF10B5044654
:1026F000D1E9000100F002F8206010BDF8B50446F1
:102700000D466A4600F066F800987E30009000287A
:102710001FDC002213462046294600F081F918D01C
:10272000002140F608004FF00000064620462946EA
:1027300000F030F9044640F6080006EA00014FF0C8
:10274000000034F0004004BF0220FDF7FEFD2046EB
:10275000F8BD0098FF280DDB0220FDF7F6FD0022F2
:1027600013462046294600F055FA8CBF04484FF026
:10277000FF40F8BD20462946BDE8F84000F00AB900
:10278000000080FF10B504460A46D4E9000319464C
:1027900000F07CF8C4E9000110BD30380A2801D2ED
:1027A000012070470020704730B583B00446FDF724
:1027B000C7FD05460020CDE90000024621466846D7
:1027C000FEF712F82846FDF7C0FDDDE9000103B071
:1027D00030BD000010B5144600222260114A21F0DD
:1027E00000439342A8BF10BD53EA000208BF10BDCA
:1027F000B3F5801FA8BF226807DA362200F039FD42
:102800006FF0350221F000432260DFF81CC06FF347
:102810001E510CEB23531A4441F0FF5141F000517B
:10282000226010BD0000F07F02FCFFFF2DE9F041A7
:102830000546002600241349284600F0AFFA074653
:1028400000F06EFB0646304600F086FB07460D4959
:10285000284600F0A3FA8046394600F061FC0446A1
:102860000849204600F090FB0746074900F096FA19
:102870000446304600F070FB0746214600F02CFA73
:10288000BDE8F0810000C842000070422DE9F0412F
:1028900006460C4640F2FF75174635EA14502BD019
:1028A00000221346304600F0BBF825D03A463046A9
:1028B000214600F0DEFC06460C4635EA145010D0E6
:1028C00000221346304600F0ABF815D10220FDF788
:1028D0003CFDFFF703FF0A46214662F31E01BDE8F7
:1028E000F0810220FDF731FDFFF7F0FE0A46214698
:1028F00062F31E01BDE8F08130462146BDE8F0815B
:1029000000F00CF8FFF7F8FAFFF76EFD05E0FFF7AF
:1029100007FC4FF47A70FFF72FFBF8E700204FF029
:10292000E02108616FF07F4048610020886108461F
:10293000006940F0050008617047000010B50029EB
:102940000AD00878002807D005487844FEF702FC32
:10295000002801D0002010BD0248784410BD0000BE
:102960007E0A0000760A000010B500290AD0087817
:10297000002807D005487844FEF7ECFB002801D07A
:10298000002010BD0248784410BD00006E0A00000F
:10299000660A000021F00042A2F16052B2F5801FE9
:1029A00001F0004328BFD2F17F6C0BD95FEA001C15
:1029B00043EAC20242EB507018BF704728BF20F0B4
:1029C00001007047B2F5801FBCBF184670474FEA40
:1029D000410C1CF5001F02D2084600F09CBB70B5EC
:1029E00000F0C4F800000089FFF7F6BF4FF0004088
:1029F000A0F580007047000002494FF0000000F091
:102A000006BC00BF0000F87F491058BFC1F140412B
:102A10005B1058BFC3F140438B42EFF30080704717
:102A200051EA030C17D41CF5801F58BFBCF5801F5A
:102A300000F10680994218BF704708BF9042704766
:102A400007D711F5801F58BF13F5801F19D499427D
:102A50007047894270471CF5801F08D5BCF5801F60
:102A6000F7D58B4218BF704708BF824270474FF4BA
:102A7000001C1CEB410F38BF1CEB430F01D28B42F3
:102A8000704770B500F072F8922449004FF0005181
:102A90004FF08053FFF7B8BF4FEA1153A3F580639F
:102AA000D3F11E03A8BFD3F1200C08DB4FF0004286
:102AB00042EAC12252EA505232FA03F07047094208
:102AC0000BD4102BC4BF0020704703F5787CBCF1F9
:102AD000FF3F05D04FF0FF3070474FF000007047C8
:102AE00070B500F043F800BF499224800020704781
:102AF000F0E7000051EA030C17D41CF5801F58BF03
:102B0000BCF5801F00F10680994218BF704708BFCE
:102B10009042704707D711F5801F58BF13F5801FEB
:102B200019D499427047894270471CF5801F08D517
:102B3000BCF5801FF7D58B4218BF704708BF824293
:102B400070474FF4001C1CEB410F38BF1CEB430FC8
:102B500001D28B42704770B500F008F8922449000A
:102B60004FF000514FF08053FFF74EBF0EF1020EB1
:102B70002EF0030E5EF8046B364205D4012A43EBB7
:102B8000030515F5001F12D8012841EB010C1CF5B7
:102B9000001F0CD80ED14FEAD17C15F5001F0CEBAD
:102BA0004C0C0CF1020C08BF4CEBD37C04E04FF052
:102BB000080C01E04FEAD37C0CEB4C0526FA05F635
:102BC00006F00706B6F1040C06D20EEB860CBDE843
:102BD00070404CF0010C6047DFE80CF0090B02027A
:102BE0004FF000414FF00000A1F5002170BD1946E3
:102BF0001046012851EB010418BFD4F5001484BF1E
:102C0000002001F0004170BD0808A0F500114FEA56
:102C10003101704753EA010C17D41CF5801F58BFCF
:102C2000BCF5801F00F106808B4218BF704708BFBB
:102C30008242704707D713F5801F58BF11F5801FD8
:102C400019D48B4270479B4270471CF5801F08D5F2
:102C5000BCF5801FF7D5994218BF704708BF904256
:102C600070474FF4001C1CEB430F38BF1CEB410FA7
:102C700001D2994270470FB40CBC03BCFFF76BBF85
:102C800043004FEAD30C4FEA3C0C43401FBF4007C0
:102C90000CF1605113F0FE4F70471CF0006F03D130
:102CA00000200CF0004170470CF0004343EA5070E4
:102CB00010B540EACC0000F0E8F900BF0000009237
:102CC0004FEA0001FFF7A0BF4FF000414FF00000B6
:102CD000A1F500217047000090EA010F48BF81F084
:102CE000004100F12482421A3CBF801A89184FEA41
:102CF000D0524FF07F4C1CEA410FA2EBD15318BFCA
:102D00009CEA026F00F03B804FF0004C4CEA002040
:102D10004CEA012121FA03FC10EB0C0C1ED202F14B
:102D2000FF325FEA1C2040EBC25038BF70471CF0F6
:102D30007F0F4FEA400C18BFBCF17F4F38BF704780
:102D4000C3F12003994008BF20F00100BCF17F4F80
:102D500038BF7047A0F1C04000F0DDB94FEA3C0039
:102D6000000A40EBC25028BF1CF0FF0F4FEA400C96
:102D7000E6D018BFBCF17F4F38BF7047EAE79CEA46
:102D8000026F05D010EA5C0F08BF00F000407047EA
:102D900010B500F07AF900BF64FBBE3E4FF47F0C23
:102DA0001CEAD0121EBF1CEAD11392EA0C0F93EA60
:102DB0000C0F00F0858090EA010F48BF42F480724A
:102DC00040F4000C41F400002CF07F4120F07F40E3
:102DD00000B58142A2EB03020FF2081CACEB504E8F
:102DE000C0F100009EF800E04FEA4E0E00FB0EFC22
:102DF00038BF49004FEA2C1C02F5FA020CFB0EF317
:102E00004FEACE1E4FEA112C4FEAC1210EEB635E52
:102E100042EB22420EFB0CFC4FEA1C5300FB031159
:102E20004FEA112C4FEA01310EFB0CFC4FEADC4C4F
:102E300000FB0C11C14228BF09184CEB03335DF8AD
:102E400004EB10EB410143EBC250B2F57C0F38BFED
:102E5000704729D512F0F00F1CBF00F1C04000F000
:102E600000407047008182838485868788898B8CA7
:102E70008D8E8F919293959697999A9C9D9FA0A2E3
:102E8000A3A5A7A8AAACAEB0B2B3B5B7B9BCBEC033
:102E9000C2C5C7C9CCCED1D4D7D9DCDFE2E6E9ECD4
:102EA000F0F3F7FAFE0000004FEA400C0CF1807CD2
:102EB000BCF17E4F28BF7047B0F1C04000F02BB985
:102EC00090EA010F0CEAD11348BF42F480726245C8
:102ED00038BF634507D213F47F0F16D080EA010094
:102EE00000F00040704710B500F0CFF8097EFC3EBE
:102EF00000F005B880EA010000F00040704780EA69
:102F0000010000F0004000F006B912F47F0F04BF8A
:102F10000248704780EA010000F0FDB80000C07F61
:102F200041000B0ED3F19E0208D950F400034FEA82
:102F3000032323FA02F048BF4042704710B500F067
:102F4000A4F800BF49922480002070476FF000422F
:102F500082EA20007047000010F0004148BF404264
:102F6000B0FA80F310FA03F2C3F19D030BD051EADB
:102F7000C35101EB1220530638BF704700F1010026
:102F800008BF20F0010070474FF47F0C1CEAD012FC
:102F90001EBF1CEAD11392EA0C0F93EA0C0F00F04B
:102FA000478090EA010F48BF42F480724FF0004C16
:102FB0004CEA00204CEA012102EB0302A0FB0113C2
:102FC000A2F50002002918BF43F001035B0028BFEF
:102FD0004FEA330342EB22425FEA132C4CEBC25020
:102FE0002EBFBCEB436FB2F57C0F70474FEA036C0A
:102FF000BCF1004F08BF20F00100B2F57C0F38BFD4
:1030000070470BD582F0FF0212F5803FC8BF7047B2
:1030100000F1C040D8BF00F00040704700F5000C40
:103020005FEA4C0C48BF7047B0F1C04000F073B885
:1030300090EA010F0CEAD11348BF42F48072624556
:1030400038BF634504D280EA010000F000407047B9
:1030500010B500F01AF800BF8900013E00F007B873
:1030600000F009B85FEA410C5FEA1C6C08D080EA06
:10307000010000F050B85FEA400C5FEA1C6CF6D12A
:103080004FF00040A0F5800070470EF1020E2EF0C8
:10309000030E5EF8044B244204D44FEA4102B2F11D
:1030A0007F4F11D84FEA4003B3F17F4F0CD80ED1B8
:1030B0004FEAD07CB2F17F4F0CEB4C0C0CF1020CC0
:1030C00008BF4CEBD17C04E04FF0080C01E04FEA64
:1030D000D17C0CEB4C0324FA03F404F00704B4F1A4
:1030E000040C06D20EEB840CBDE810404CF0010C31
:1030F0006047DFE80CF0070802024FF00040A0F53F
:10310000800010BD0846420018BFD2F1807288BF0F
:1031100000F0004010BDFF2141EAD050C0057047CB
:1031200090EA010F48BF81F000413FF5DCAD421A43
:1031300004D882F00042A0EB020011444FEAD052C2
:103140004FF07F4C1CEA410FA2EBD15318BF9CEA11
:10315000026F4AD04FF0004C4CEA00204CEA0121AB
:1031600021FA03FCB0EB0C0C0FD412F0FE0F36D09A
:103170005FEA4C001DD5001240EBC25038BF7047CB
:103180001CF03F0F18BF70470BE0A2F101025FEA8D
:103190001C2040EBC25038BF70471CF07F0F18BF97
:1031A0007047C3F12003994014BF401E20F0010076
:1031B000704780084FEA122308BF7047B0FA80FCBE
:1031C000A2EB0C02CCF1280C60FA0CF093EA122F5F
:1031D00004BF00EBC25070474FEAC3707047130A38
:1031E0005FEADC1008BF7047F6E79CEA026F04D084
:1031F00010EA5C0F08BF0020704710B5FFF745FFCD
:1032000040DFF63E81F000407047FDF77BB90CF0DF
:103210000F03092B08BF082000F05F800A2B0BD09A
:10322000082B18BF704708BF1CF0400F0AD04FF0A2
:1032300000004FF0000170471CF0400F18BF4FF026
:10324000004070471CF0100F08D020F0704300F0D1
:103250007F4242EAD3014FEA4370704700F060407A
:1032600021F07F4242EA000201F07F4040EA7270A2
:1032700070474FF0FF0C4CF4E06C1CEA11531CBF7C
:103280009CEA030C9445C2BFDA4201EB025170473D
:10329000002B0DD0BCF1000F0FD0002A01F000412F
:1032A000A4BF41F0E04141F07F614FF00000704762
:1032B00001F000414FF00000704750EA01334FF039
:1032C0009B0C18BF4CF0806C7FF496AB7047FDF7F9
:1032D000E3BDFDF77FBFFEF709B91CF4801F11D0D5
:1032E0001CF4E02F03D06FEACC31490070474FF057
:1032F0004050EFF3008222F0704242EA000282F373
:10330000008870474FF00000704700000240000046
:10331000000000A00000000005400000000000C800
:10332000000000000C4000000000409C0000000075
:10333000194000000020BCBE000000003440000026
:10334000BFC91B8E00000004B5400000504BCFD019
:103350006607E2CF010000006C4100003E8251AAE6
:10336000DFEEA73401000000D9420000DCB5A0E286
:103370003A301F97FFFFFFFFB4450000FD25A0C8AE
:10338000E9A3C14FFFFFFFFFFF3F000000000080E7
:1033900000000000FF3F000000000080000000006F
:1033A000F4340008000000200C0000002801000890
:1033B000003500080C0000208C13000044010008B8
:1033C000000000000000F07F1C000000430000002F
:1033D000F8FFFFFF0C0000000E0000000F000000CF
:1033E0002E0000001001000043000000F8FFFFFF66
:1033F0000040404040404040404041414141414008
:1034000040404040404040404040404040404040BC
:10341000400502020202020202020202020202024B
:103420000220202020202020202020020202020250
:1034300002029090909090901010101010101010A8
:1034400010101010101010101010101002020202B4
:1034500002028888888888880808080808080808F8
:1034600008080808080808080808080802020202F4
:10347000400000000000000000000000000000000C
:10348000000000000000000000000000000000003C
:10349000000000000000000000000000000000002C
:1034A000000000000000000000000000000000001C
:1034B000000000000000000000000000000000000C
:1034C00000000000000000000000000000000000FC
:1034D00000000000000000000000000000000000EC
:1034E00000000000000000000000000000000000DC
:1034F00000000000000000000000000000000000CC
:04000005080000ED02
:00000001FF
